:020000040000FA
:1000000018030020D5000000E3000000E500000018
:1000100000000000000000000000000000000000E0
:10002000000000000000000000000000E7000000E9
:100030000000000000000000E9000000C50300000F
:1000400015040000290400002B0400002D0400000A
:100050008103000083030000890300008503000082
:100060001104000087030000990300003D03000015
:10007000ED0000008D030000130400005103000098
:10008000ED000000ED000000ED000000ED000000BC
:10009000ED00000000000000000000000000000073
:1000A0000000000000000000000000000000000050
:1000B0000000000000000000000000000000000040
:1000C0000348854600F006F9004800477D0400001B
:1000D00018030020064880F3088806488047064831
:1000E0000047FEE7FEE7FEE7FEE7FEE7FEE700006B
:1000F00018030020C7030000C1000000F0B50C4643
:100100005C4085B0E40FE40703944C0000266408CB
:1001100059009446490802460296224321D062467D
:100120000A431ED06200570D4A000E032303550DEB
:10013000012402462C492405781B1B0B360B401862
:1001400023432643614600901C46501AB44103D312
:100150000098401C009002E0921800985B41002833
:1001600003DA0020014605B0F0BD00200121090599
:100170000746864611E064461D46141BB54106D36A
:100180006546521BB341744607430C43A646CD0750
:1001900040084908284392185B4105460D43EAD1BF
:1001A0001046184313D0604619465040714008432A
:1001B00006D06046101AB34106D20122002306E0A1
:1001C00000220123DB0702E00122D24353100098F2
:1001D00074460105381C6141029C039D0019694168
:1001E00000F018F8BFE70000FD0300000EB5C217CD
:1001F000C10F5040CA0740180021054B02930192DD
:1002000000910A460B4600F012F803B000BD000052
:100210003304000010B5002B08DA0024401C6141B3
:1002200092185B411A4301D14008400010BDF0B55F
:100230001FB482B005460C0003D0084600F0F7F862
:1002400002E000F0F4F820300246009021462846F3
:1002500000F052F8049B059A04460F4618431143D8
:10026000084314D0184610431BD0009840210A1AA6
:100270001846059900F050F805460E46009A059973
:10028000049800F039F8084305D0012004E0204626
:10029000394607B0F0BD0020C11705430E432C437B
:1002A000374300990E986305401A7905E40A002245
:1002B0000C43FD0A0A3002D500200146E9E701059A
:1002C000101969410C9C0D9D00196941FFF7A2FFAF
:1002D000DFE70000064C0125064E05E0E36807CC89
:1002E0002B430C3C98471034B442F7D3FFF7ECFE95
:1002F000E00400000005000010B5202A04DB0146E0
:10030000203A9140002010BD914020239C1A0346C2
:10031000E3401943904010BD10B5202A04DB084685
:10032000203AD040002110BD0B46D340D0402024BD
:10033000A21A91400843194610BD00000348406BC3
:1003400003210843014948637047000080140140BD
:1003500070470000074808490863C805406BC91387
:100360000843C90348630448006804490843024934
:1003700008607047837A000080000040FF010000A1
:10038000704770477047704770470000032001496D
:10039000C8637047001C014070470000074A084BC3
:1003A0001A63002904D01A46D2690243DA6104E0D4
:1003B000034AD2698243024BDA617047837A0000B4
:1003C00080000040704700B5FFF7C4FF00BD00008B
:1003D00001B501214020FFF7E1FF0B48006804212F
:1003E00088430949086068460021415E06488160EB
:1003F00068460221415E0448C160C06900B20349F9
:1004000008800020085E08BD005001401000002058
:10041000704770470348806B042108430149886393
:1004200070470000C0180140704770477047202196
:10043000020C01D010211046020A01D010460839E2
:10044000020901D01046091F820801D01046891EFA
:10045000420801D0881E7047081A704702E008C899
:10046000121F08C1002AFAD170477047002001E02E
:1004700001C1121F002AFBD17047000008B50024FB
:100480001EE020B20F4908800F4848800A8868465D
:100490000280498841800098FFF79AFF0B4A0021AB
:1004A000515E0B4A11400846FFF7A0FE094A03C2FD
:1004B0000022094B074903C9FFF720FE074A03C280
:1004C000DFE7000012000020F0D8FFFF100000203E
:1004D000FE7F00000800002000000840000000200F
:1004E0000005000000000020180000005C0400006F
:1004F0001805000018000020000300006C04000034
:1005000000000000000000000000000000000000EB
:080510000000000000000000E3
:04000005000000C136
:00000001FF
